:1000000012C019C018C017C016C015C014C013C044
:1000100012C011C010C00FC00EC00DC00CC00BC06C
:100020000AC009C008C011241FBECFE5D4E0DEBF5E
:10003000CDBF02D03FC0E4CF80EF81BB60EA50E586
:1000400040E830E220E490E131C080B3883019F01C
:1000500080B3883A11F462BB29C080B3843019F0B0
:1000600080B3843511F452BB21C080B38A3019F0BB
:1000700080B38A3811F442BB19C080B3893019F0BB
:1000800080B3893211F432BB11C080B3863019F0CD
:1000900080B3863411F422BB09C080B3853019F0D7
:1000A00080B3853111F492BB01C012BA80B38823AA
:0800B000E9F3CBCFF894FFCF78
:00000001FF
