:1000000012C019C018C017C016C015C014C013C044
:1000100012C011C010C00FC00EC00DC00CC00BC06C
:100020000AC009C008C011241FBECFE5D4E0DEBF5E
:10003000CDBF02D037C0E4CF17BA8FEF81BB60EAE3
:1000400050E540E830E220E490E186B3803809F4DE
:1000500062BB86B3803409F452BB86B3803A09F49C
:1000600042BB86B3803909F432BB86B3803609F4CB
:1000700022BB86B3803509F492BB86B3882309F48A
:1000800012BA86B3803C61F086B3803E49F086B3F5
:10009000803F31F086B3803719F086B38033A9F6FC
:0800A00012BAD3CFF894FFCF90
:00000001FF
